:020000040800F2
:100000006806002099010008A1010008A30100086A
:10001000A5010008A7010008A901000800000000D0
:10002000000000000000000000000000AB0100081C
:10003000AD01000800000000AF010008B101000898
:10004000B3010008B3010008B3010008B3010008C0
:10005000B3010008B3010008B3010008B3010008B0
:10006000B3010008B3010008B3010008B3010008A0
:10007000B3010008B3010008B3010008B301000890
:10008000B3010008B3010008B3010008B301000880
:10009000B3010008B3010008B3010008B301000870
:1000A000B3010008B3010008B3010008B301000860
:1000B000B3010008B3010008B3010008B301000850
:1000C000B3010008B3010008B3010008B301000840
:1000D000B3010008B3010008B3010008B301000830
:1000E000B3010008B3010008B301000800F002F8F2
:1000F00000F042F814A696E8000CB244B344DA4586
:1001000001D100F039F8BAE80F000FA696E83000E8
:10011000A5EB040504EB0607AAEB0704A7F101070A
:100120004FEA15154FEA3414A4F10104AC4201D38F
:1001300000F022F813F0010F18BFFB1A43F001037F
:1001400000F001F8DBE7184798090000A809000053
:10015000704700000023002400250026103A28BF25
:1001600078C1FBD8520728BF30C148BF0B60704729
:100170001FB51FBD10B510BD00F031F81146FFF7D7
:10018000F7FF00F06BFC00F04FF803B4FFF7F2FF4D
:1001900003BC00F057F800000948804709480047B1
:1001A000FEE7FEE7FEE7FEE7FEE7FEE7FEE7FEE727
:1001B000FEE7FEE704480549054A064B7047000084
:1001C000A1050008ED000008680000206806002076
:1001D000680200206802002070477047704775462B
:1001E00000F02CF8AE4605006946534620F00700A3
:1001F000854618B020B5FFF7DDFFBDE820404FF081
:1002000000064FF000074FF000084FF0000BAC461F
:10021000ACE8C009ACE8C009ACE8C009ACE8C0096A
:1002200021F007018D46704710B50446AFF30080FA
:100230002046BDE81040FFF7A8BF00000048704707
:100240000000002001491820ABBEFEE72600020096
:100250007047000088B00790069100200590049038
:1002600003900290019000900698C07800F00F0073
:1002700005900698C078C006002806D5FFE70698C6
:100280008178059808430590FFE7069800780028D4
:100290004BD0FFE707980068019000200390FFE72C
:1002A000039807283DD8FFE7039901208840029072
:1002B00006980088029908400490049802998842A0
:1002C0002AD1FFE703988000029002990F2088400E
:1002D000009000990198884301900598029900FACE
:1002E00001F10198084301900698C078282806D1AA
:1002F000FFE7039901208840079948610BE00698C1
:10030000C078482806D1FFE7039901208840079963
:100310000861FFE7FFE7FFE7FFE70398013003907D
:10032000BEE7019807990860FFE706980088B0F5D6
:10033000807F50DBFFE70798406801900020039022
:10034000FFE70398072842D8FFE7039800F1080168
:100350000120884002900698008802990840049085
:100360000498029988422DD1FFE7039880000290FB
:1003700002990F20884000900099019888430190CD
:100380000598029900FA01F1019808430190069836
:10039000C078282808D1FFE7039800F10801012060
:1003A000884007994861FFE70698C078482808D137
:1003B000FFE7039800F108010120884007990861D0
:1003C000FFE7FFE7FFE7039801300390B9E70198E3
:1003D00007994860FFE708B07047000082B00190BD
:1003E000ADF80210BDF802000199486102B07047F3
:1003F00082B00190ADF80210BDF8020001990861C9
:1004000002B0704782B001908DF803109DF8030090
:1004100048B1FFE7019A41F21C01C4F202010868E9
:100420001043086008E0019A41F21C01C4F2020185
:10043000086890430860FFE702B0704782B00190FF
:100440008DF803109DF8030048B1FFE7019A41F2CF
:100450001801C4F2020108681043086008E0019A1C
:1004600041F21801C4F20201086890430860FFE7F6
:1004700002B0704780B500F001F880BD84B0002064
:100480000390029041F20001C4F20201086840F4B6
:1004900080300860FFE741F20000C4F2020000680B
:1004A00000F400300290039801300390FFE70299B6
:1004B0000020019039B9FFE70398B0F5A06018BF9C
:1004C00001200190FFE70198C0070028E3D1FFE772
:1004D00041F20000C4F2020000688003002803D546
:1004E000FFE70120029002E000200290FFE702985F
:1004F000012851D1FFE742F20001C4F2020108686D
:1005000040F010000860086820F0070008600868E4
:1005100040F00200086041F20401C4F202010091BF
:100520000868086008680860086840F4806008602F
:10053000086820F47C100860086840F4E81008603F
:1005400041F20001C4F20201086840F080700860C6
:10055000FFE741F20000C4F20200006880010028B9
:1005600001D4FFE7F5E741F20401C4F20201086893
:1005700020F003000860086840F002000860FFE710
:1005800041F20400C4F20200006800F00C000828E8
:1005900001D0FFE7F4E700E0FFE704B07047000098
:1005A00080B541F20002C4F20202106840F001007E
:1005B000106041F20401C4F2020108680023CFF682
:1005C000FF031840086010684FF6FF73CFF6F6631C
:1005D00018401060106820F480201060086820F433
:1005E000FE00086041F20801C4F202014FF41F004E
:1005F0000860FFF73FFF4EF60851CEF200014FF0C2
:100600000060086080BD000082B001908DF803108A
:100610009DF8030030B1FFE70199088840F0010020
:10062000088005E00199088820F001000880FFE7B4
:1006300002B0704781B000900098808C01B0704784
:1006400082B00190ADF80210BDF8020001998884D3
:1006500002B0704783B0029001910020ADF8020013
:1006600002980088ADF80200029842F60041C4F2F8
:100670000101884225D0FFE7029843F20041C4F20D
:10068000010188421DD0FFE70298B0F1804F18D0D9
:10069000FFE7029840F20041C4F20001884210D006
:1006A000FFE7029840F60001C4F20001884208D03A
:1006B000FFE7029840F60041C4F2000188420ED1E3
:1006C000FFE7BDF8020020F07000ADF802000198CD
:1006D0004188BDF802000843ADF80200FFE7029828
:1006E00041F20001C4F20001884216D0FFE70298EF
:1006F00041F20041C4F2000188420ED0FFE7BDF88C
:10070000020020F44070ADF802000198C188BDF8E5
:1007100002000843ADF80200FFE7BDF802000299AD
:10072000088001988088029988850198008802993C
:100730000885029842F60041C4F20101884220D0A7
:10074000FFE7029843F20041C4F20101884218D049
:10075000FFE7029844F20001C4F20101884210D080
:10076000FFE7029844F20041C4F20101884208D038
:10077000FFE7029844F60001C4F20101884205D166
:10078000FFE70198007A02990886FFE702990120A5
:10079000888203B07047000080B584B00020ADF8B7
:1007A0000C0041F61F41ADF806104FF6FF71ADF891
:1007B0000A10ADF808004FF0804000900DF10601DE
:1007C000FFF748FF00980121FFF71EFF04B080BD2E
:1007D00080B582B0ADF806004FF080400021FFF7F1
:1007E0002FFFFFE74FF08040FFF724FFBDF8061012
:1007F00001EB8101B0EB410F01DAFFE7F2E702B054
:1008000080BD000080B584B0102000908DF80F00EE
:100810004FF40050ADF80C00032001908DF80E004D
:1008200041F20000C4F2010003A90291FFF712FD9A
:10083000009A019802998DF80F200722ADF80C203C
:100840008DF80E0040F60000C4F20100FFF702FD33
:1008500004B080BD81B0009000990120088000990B
:100860000220488000990420888001B07047000071
:1008700080B586B003920291BDF80C10ADF814104B
:10088000029904918DF807009DF807000146009138
:10089000062860D80099DFE801F00416222E3A46B7
:1008A0005200BDF81000BDF812100843BDF8141036
:1008B000014340F60000C4F20100FFF78FFD642001
:1008C000FFF786FF47E0BDF8101040F60000C4F2C5
:1008D0000100FFF783FD6420FFF77AFF3BE0BDF8DE
:1008E000121040F60000C4F20100FFF777FD64200B
:1008F000FFF76EFF2FE0BDF8141040F60000C4F2C1
:100900000100FFF76BFD6420FFF762FF23E0BDF8F5
:10091000101040F60000C4F20100FFF769FD6420EA
:10092000FFF756FF17E0BDF8121040F60000C4F2C2
:100930000100FFF75DFD6420FFF74AFF0BE0BDF803
:10094000141040F60000C4F20100FFF751FD6420CE
:10095000FFF73EFFFFE706B080BD000080B58AB01C
:1009600007920691BDF81C10ADF824100699089165
:100970008DF81700FFE740F26000C2F20000017836
:100980008DF81610007801460291062849D8029980
:10099000DFE801F0042432401D2B39009DF81700D8
:1009A0000146019120B1FFE70198012807D00DE031
:1009B00040F26001C2F200010420087006E040F23B
:1009C0006001C2F2000100200870FFE729E040F258
:1009D0006001C2F200010520087022E040F26001CF
:1009E000C2F20001022008701BE040F26001C2F276
:1009F00000010620087014E040F26001C2F200011C
:100A0000032008700DE040F26001C2F200010120F5
:100A1000087006E040F26001C2F200010420087094
:100A20001AE09DF8160040F26001C2F20001097858
:100A3000884210D0FFE740F26000C2F20000007868
:100A4000BDF82410ADF81010089903910399049A89
:100A5000FFF70EFFFFE78EE70AB080BD80B588B0D4
:100A600000200090079000F029F8FFF7CBFEFFF779
:100A700093FE0DF11600FFF7EDFE009940F26000C5
:100A8000C2F2000001700078BDF81A10ADF8101025
:100A9000DDF8161003910399049AFFF7E9FE009818
:100AA000BDF81A10ADF80810DDF816100191019983
:100AB000029AFFF753FF009808B080BD80B582B05E
:100AC000102001210191FFF7B9FC01990420FFF7E3
:100AD000B5FC01990846FFF795FC02B080BD000007
:100AE000F00A000800000020680600005401000819
:040000050800019955
:00000001FF
